{
  "contractName": "Ballot",
  "abi": [
    {
      "inputs": [
        {
          "internalType": "bytes32[]",
          "name": "proposalNames",
          "type": "bytes32[]"
        }
      ],
      "stateMutability": "nonpayable",
      "type": "constructor"
    },
    {
      "inputs": [],
      "name": "chairperson",
      "outputs": [
        {
          "internalType": "address",
          "name": "",
          "type": "address"
        }
      ],
      "stateMutability": "view",
      "type": "function",
      "constant": true
    },
    {
      "inputs": [
        {
          "internalType": "uint256",
          "name": "",
          "type": "uint256"
        }
      ],
      "name": "proposals",
      "outputs": [
        {
          "internalType": "bytes32",
          "name": "name",
          "type": "bytes32"
        },
        {
          "internalType": "uint256",
          "name": "voteCount",
          "type": "uint256"
        }
      ],
      "stateMutability": "view",
      "type": "function",
      "constant": true
    },
    {
      "inputs": [
        {
          "internalType": "address",
          "name": "",
          "type": "address"
        }
      ],
      "name": "voters",
      "outputs": [
        {
          "internalType": "uint256",
          "name": "vote",
          "type": "uint256"
        },
        {
          "internalType": "bool",
          "name": "voted",
          "type": "bool"
        },
        {
          "internalType": "uint256",
          "name": "weight",
          "type": "uint256"
        }
      ],
      "stateMutability": "view",
      "type": "function",
      "constant": true
    },
    {
      "inputs": [
        {
          "internalType": "address",
          "name": "voter",
          "type": "address"
        }
      ],
      "name": "giveRightToVote",
      "outputs": [],
      "stateMutability": "nonpayable",
      "type": "function"
    },
    {
      "inputs": [
        {
          "internalType": "uint256",
          "name": "proposal",
          "type": "uint256"
        }
      ],
      "name": "vote",
      "outputs": [],
      "stateMutability": "nonpayable",
      "type": "function"
    },
    {
      "inputs": [],
      "name": "winningProposal",
      "outputs": [
        {
          "internalType": "uint256",
          "name": "winningProposal_",
          "type": "uint256"
        }
      ],
      "stateMutability": "view",
      "type": "function",
      "constant": true
    },
    {
      "inputs": [],
      "name": "winningName",
      "outputs": [
        {
          "internalType": "bytes32",
          "name": "winningName_",
          "type": "bytes32"
        }
      ],
      "stateMutability": "view",
      "type": "function",
      "constant": true
    }
  ],
  "bytecode": "0x60806040523480156200001157600080fd5b5060405162000f2b38038062000f2b833981810160405281019062000037919062000344565b33600260006101000a81548173ffffffffffffffffffffffffffffffffffffffff021916908373ffffffffffffffffffffffffffffffffffffffff1602179055506001806000600260009054906101000a900473ffffffffffffffffffffffffffffffffffffffff1673ffffffffffffffffffffffffffffffffffffffff1673ffffffffffffffffffffffffffffffffffffffff1681526020019081526020016000206002018190555060005b815181101562000178576000604051806040016040528084848151811062000111576200011062000395565b5b60200260200101518152602001600081525090806001815401808255809150506001900390600052602060002090600202016000909190919091506000820151816000015560208201518160010155505080806200016f90620003fd565b915050620000e4565b50506200044a565b6000604051905090565b600080fd5b600080fd5b600080fd5b6000601f19601f8301169050919050565b7f4e487b7100000000000000000000000000000000000000000000000000000000600052604160045260246000fd5b620001e48262000199565b810181811067ffffffffffffffff82111715620002065762000205620001aa565b5b80604052505050565b60006200021b62000180565b9050620002298282620001d9565b919050565b600067ffffffffffffffff8211156200024c576200024b620001aa565b5b602082029050602081019050919050565b600080fd5b6000819050919050565b620002778162000262565b81146200028357600080fd5b50565b60008151905062000297816200026c565b92915050565b6000620002b4620002ae846200022e565b6200020f565b90508083825260208201905060208402830185811115620002da57620002d96200025d565b5b835b81811015620003075780620002f2888262000286565b845260208401935050602081019050620002dc565b5050509392505050565b600082601f83011262000329576200032862000194565b5b81516200033b8482602086016200029d565b91505092915050565b6000602082840312156200035d576200035c6200018a565b5b600082015167ffffffffffffffff8111156200037e576200037d6200018f565b5b6200038c8482850162000311565b91505092915050565b7f4e487b7100000000000000000000000000000000000000000000000000000000600052603260045260246000fd5b7f4e487b7100000000000000000000000000000000000000000000000000000000600052601160045260246000fd5b6000819050919050565b60006200040a82620003f3565b91507fffffffffffffffffffffffffffffffffffffffffffffffffffffffffffffffff82036200043f576200043e620003c4565b5b600182019050919050565b610ad1806200045a6000396000f3fe608060405234801561001057600080fd5b506004361061007d5760003560e01c80632e4176cf1161005b5780632e4176cf146100ed578063609ff1bd1461010b5780639e7b8d6114610129578063a3ec138d146101455761007d565b80630121b93f14610082578063013cf08b1461009e5780631f9ff6d7146100cf575b600080fd5b61009c600480360381019061009791906105fd565b610177565b005b6100b860048036038101906100b391906105fd565b6102bd565b6040516100c6929190610652565b60405180910390f35b6100d76102f1565b6040516100e4919061067b565b60405180910390f35b6100f5610324565b60405161010291906106d7565b60405180910390f35b61011361034a565b60405161012091906106f2565b60405180910390f35b610143600480360381019061013e9190610739565b6103d2565b005b61015f600480360381019061015a9190610739565b61058b565b60405161016e93929190610781565b60405180910390f35b6000600160003373ffffffffffffffffffffffffffffffffffffffff1673ffffffffffffffffffffffffffffffffffffffff16815260200190815260200160002090506000816002015403610201576040517f08c379a00000000000000000000000000000000000000000000000000000000081526004016101f890610815565b60405180910390fd5b8060010160009054906101000a900460ff1615610253576040517f08c379a000000000000000000000000000000000000000000000000000000000815260040161024a90610881565b60405180910390fd5b60018160010160006101000a81548160ff021916908315150217905550818160000181905550806002015460008381548110610292576102916108a1565b5b906000526020600020906002020160010160008282546102b291906108ff565b925050819055505050565b600081815481106102cd57600080fd5b90600052602060002090600202016000915090508060000154908060010154905082565b6000806102fc61034a565b8154811061030d5761030c6108a1565b5b906000526020600020906002020160000154905090565b600260009054906101000a900473ffffffffffffffffffffffffffffffffffffffff1681565b6000806000905060005b6000805490508110156103cd578160008281548110610376576103756108a1565b5b90600052602060002090600202016001015411156103ba57600081815481106103a2576103a16108a1565b5b90600052602060002090600202016001015491508092505b80806103c590610955565b915050610354565b505090565b600260009054906101000a900473ffffffffffffffffffffffffffffffffffffffff1673ffffffffffffffffffffffffffffffffffffffff163373ffffffffffffffffffffffffffffffffffffffff1614610462576040517f08c379a000000000000000000000000000000000000000000000000000000000815260040161045990610a0f565b60405180910390fd5b600160008273ffffffffffffffffffffffffffffffffffffffff1673ffffffffffffffffffffffffffffffffffffffff16815260200190815260200160002060010160009054906101000a900460ff16156104f2576040517f08c379a00000000000000000000000000000000000000000000000000000000081526004016104e990610a7b565b60405180910390fd5b6000600160008373ffffffffffffffffffffffffffffffffffffffff1673ffffffffffffffffffffffffffffffffffffffff168152602001908152602001600020600201541461054157600080fd5b60018060008373ffffffffffffffffffffffffffffffffffffffff1673ffffffffffffffffffffffffffffffffffffffff1681526020019081526020016000206002018190555050565b60016020528060005260406000206000915090508060000154908060010160009054906101000a900460ff16908060020154905083565b600080fd5b6000819050919050565b6105da816105c7565b81146105e557600080fd5b50565b6000813590506105f7816105d1565b92915050565b600060208284031215610613576106126105c2565b5b6000610621848285016105e8565b91505092915050565b6000819050919050565b61063d8161062a565b82525050565b61064c816105c7565b82525050565b60006040820190506106676000830185610634565b6106746020830184610643565b9392505050565b60006020820190506106906000830184610634565b92915050565b600073ffffffffffffffffffffffffffffffffffffffff82169050919050565b60006106c182610696565b9050919050565b6106d1816106b6565b82525050565b60006020820190506106ec60008301846106c8565b92915050565b60006020820190506107076000830184610643565b92915050565b610716816106b6565b811461072157600080fd5b50565b6000813590506107338161070d565b92915050565b60006020828403121561074f5761074e6105c2565b5b600061075d84828501610724565b91505092915050565b60008115159050919050565b61077b81610766565b82525050565b60006060820190506107966000830186610643565b6107a36020830185610772565b6107b06040830184610643565b949350505050565b600082825260208201905092915050565b7f486173206e6f20726967687420746f20766f7465000000000000000000000000600082015250565b60006107ff6014836107b8565b915061080a826107c9565b602082019050919050565b6000602082019050818103600083015261082e816107f2565b9050919050565b7f416c726561647920766f74656400000000000000000000000000000000000000600082015250565b600061086b600d836107b8565b915061087682610835565b602082019050919050565b6000602082019050818103600083015261089a8161085e565b9050919050565b7f4e487b7100000000000000000000000000000000000000000000000000000000600052603260045260246000fd5b7f4e487b7100000000000000000000000000000000000000000000000000000000600052601160045260246000fd5b600061090a826105c7565b9150610915836105c7565b9250827fffffffffffffffffffffffffffffffffffffffffffffffffffffffffffffffff0382111561094a576109496108d0565b5b828201905092915050565b6000610960826105c7565b91507fffffffffffffffffffffffffffffffffffffffffffffffffffffffffffffffff8203610992576109916108d0565b5b600182019050919050565b7f4f6e6c7920746865206368616972706572736f6e2063616e206163636573732060008201527f746f20766f746500000000000000000000000000000000000000000000000000602082015250565b60006109f96027836107b8565b9150610a048261099d565b604082019050919050565b60006020820190508181036000830152610a28816109ec565b9050919050565b7f54686520766f74657220616c726561647920766f746564000000000000000000600082015250565b6000610a656017836107b8565b9150610a7082610a2f565b602082019050919050565b60006020820190508181036000830152610a9481610a58565b905091905056fea264697066735822122043bf02b5794a9ffd51dad4c503c51b43d78c85aee14a09c9759214ce9839584764736f6c634300080d0033",
  "immutableReferences": {},
  "source": "// SPDX-License-Identifier: MIT\npragma solidity >=0.4.22 <0.9.0;\n\ncontract Ballot {\n  \n  struct Voter {\n    uint vote;\n    bool voted;\n    uint weight;\n  } \n\n  struct Proposal {\n    bytes32 name;\n    uint voteCount;\n  }\n\n  Proposal[] public proposals;\n\n  mapping(address => Voter) public voters;\n\n  address public chairperson;\n  \n  constructor(bytes32[] memory proposalNames) {\n\n    chairperson = msg.sender;\n\n    voters[chairperson].weight = 1;\n\n    for(uint i=0; i < proposalNames.length; i++) {\n      proposals.push(Proposal({\n        name: proposalNames[i],\n        voteCount: 0\n      }));\n    }\n  }\n\n  function giveRightToVote(address voter) public {\n    require(msg.sender == chairperson, 'Only the chairperson can access to vote');\n\n    require(!voters[voter].voted, 'The voter already voted');\n\n    require(voters[voter].weight == 0);\n\n    voters[voter].weight = 1;\n\n  }\n\n  function vote(uint proposal) public {\n    Voter storage sender = voters[msg.sender];\n    require(sender.weight != 0, 'Has no right to vote');\n    require(!sender.voted, 'Already voted');\n\n    sender.voted = true;\n    sender.vote = proposal;\n\n    proposals[proposal].voteCount += sender.weight;\n    \n  }\n\n  function winningProposal() public view returns (uint winningProposal_) {\n\n    uint winningVoteCount = 0;\n    for(uint i = 0; i < proposals.length; i++) {\n      if(proposals[i].voteCount > winningVoteCount) {\n        winningVoteCount = proposals[i].voteCount;\n        winningProposal_ = i;\n      }\n    }\n  }\n\n  function winningName() public view returns (bytes32 winningName_) {\n    winningName_ = proposals[winningProposal()].name;\n  }\n\n}\n",
  "sourcePath": "/Users/saqif/Projects/VoteChain-Decentralized-Voting-Application/contracts/Ballot.sol",
  "compiler": {
    "name": "solc",
    "version": "0.8.13+commit.abaa5c0e.Emscripten.clang"
  },
  "schemaVersion": "3.4.16",
  "updatedAt": "2024-07-25T07:39:46.091Z",
  "networkType": "ethereum",
  "devdoc": {
    "kind": "dev",
    "methods": {},
    "version": 1
  },
  "userdoc": {
    "kind": "user",
    "methods": {},
    "version": 1
  }
}